{
  "contractName": "Faucet",
  "abi": [
    {
      "inputs": [],
      "stateMutability": "nonpayable",
      "type": "constructor"
    },
    {
      "inputs": [],
      "name": "defaultAmount",
      "outputs": [
        {
          "internalType": "uint256",
          "name": "",
          "type": "uint256"
        }
      ],
      "stateMutability": "view",
      "type": "function"
    },
    {
      "inputs": [],
      "name": "defaultInterval",
      "outputs": [
        {
          "internalType": "uint256",
          "name": "",
          "type": "uint256"
        }
      ],
      "stateMutability": "view",
      "type": "function"
    },
    {
      "stateMutability": "payable",
      "type": "receive"
    },
    {
      "inputs": [
        {
          "internalType": "address",
          "name": "newManager",
          "type": "address"
        }
      ],
      "name": "changeManager",
      "outputs": [],
      "stateMutability": "nonpayable",
      "type": "function"
    },
    {
      "inputs": [
        {
          "internalType": "address[]",
          "name": "tokenList",
          "type": "address[]"
        }
      ],
      "name": "retrieveToken",
      "outputs": [],
      "stateMutability": "nonpayable",
      "type": "function"
    },
    {
      "inputs": [
        {
          "internalType": "address",
          "name": "tokenContractAddress",
          "type": "address"
        }
      ],
      "name": "getClaimInterval",
      "outputs": [
        {
          "internalType": "uint256",
          "name": "",
          "type": "uint256"
        }
      ],
      "stateMutability": "view",
      "type": "function"
    },
    {
      "inputs": [
        {
          "internalType": "address",
          "name": "tokenContractAddress",
          "type": "address"
        }
      ],
      "name": "getClaimAmount",
      "outputs": [
        {
          "internalType": "uint256",
          "name": "",
          "type": "uint256"
        }
      ],
      "stateMutability": "view",
      "type": "function"
    },
    {
      "inputs": [
        {
          "internalType": "uint256",
          "name": "intervalSeconds",
          "type": "uint256"
        }
      ],
      "name": "setDefaultIntervalSeconds",
      "outputs": [],
      "stateMutability": "nonpayable",
      "type": "function"
    },
    {
      "inputs": [
        {
          "internalType": "uint256",
          "name": "amount",
          "type": "uint256"
        }
      ],
      "name": "setDefaultAmount",
      "outputs": [],
      "stateMutability": "nonpayable",
      "type": "function"
    },
    {
      "inputs": [
        {
          "internalType": "address",
          "name": "tokenContractAddress",
          "type": "address"
        },
        {
          "internalType": "uint256",
          "name": "interval",
          "type": "uint256"
        },
        {
          "internalType": "uint256",
          "name": "amount",
          "type": "uint256"
        }
      ],
      "name": "setClaimSetting",
      "outputs": [],
      "stateMutability": "nonpayable",
      "type": "function"
    },
    {
      "inputs": [
        {
          "internalType": "address",
          "name": "tokenContractAddress",
          "type": "address"
        }
      ],
      "name": "claimToken",
      "outputs": [],
      "stateMutability": "nonpayable",
      "type": "function"
    },
    {
      "inputs": [],
      "name": "claimCfx",
      "outputs": [],
      "stateMutability": "nonpayable",
      "type": "function"
    },
    {
      "inputs": [
        {
          "internalType": "address",
          "name": "tokenContractAddress",
          "type": "address"
        }
      ],
      "name": "claimTokenRegardingSenderBalance",
      "outputs": [],
      "stateMutability": "nonpayable",
      "type": "function"
    },
    {
      "inputs": [],
      "name": "claimCfxRegardingSenderBalance",
      "outputs": [],
      "stateMutability": "nonpayable",
      "type": "function"
    }
  ],
  "bytecode": "0x6080604052610e10600255683635c9adc5dea0000060035534801561002357600080fd5b5033600460006101000a81548173ffffffffffffffffffffffffffffffffffffffff021916908373ffffffffffffffffffffffffffffffffffffffff160217905550600073088800000000000000000000000000000000000190506060600167ffffffffffffffff8111801561009857600080fd5b506040519080825280602002602001820160405280156100c75781602001602082028036833780820191505090505b5090506000816000815181106100d957fe5b602002602001019073ffffffffffffffffffffffffffffffffffffffff16908173ffffffffffffffffffffffffffffffffffffffff16815250508173ffffffffffffffffffffffffffffffffffffffff166310128d3e826040518263ffffffff1660e01b81526004018080602001828103825283818151815260200191508051906020019060200280838360005b83811015610182578082015181840152602081019050610167565b5050505090500192505050600060405180830381600087803b1580156101a757600080fd5b505af11580156101bb573d6000803e3d6000fd5b50505050505061174c806101d06000396000f3fe6080604052600436106100c65760003560e01c8063b3facdda1161007f578063c57bb04c11610059578063c57bb04c14610393578063d1ac71fb146103f8578063dde070e814610423578063fc27ea8314610488576100cd565b8063b3facdda14610218578063bb53cb271461027d578063c12d6f56146102ce576100cd565b80632b76b3f1146100d257806332f289cf1461010d5780635f3cc9f71461015e5780637a4102b814610175578063a3fbbaae146101b0578063b29bfb8814610201576100cd565b366100cd57005b600080fd5b3480156100de57600080fd5b5061010b600480360360208110156100f557600080fd5b81019080803590602001909291905050506104b3565b005b34801561011957600080fd5b5061015c6004803603602081101561013057600080fd5b81019080803573ffffffffffffffffffffffffffffffffffffffff169060200190929190505050610580565b005b34801561016a57600080fd5b5061017361099c565b005b34801561018157600080fd5b506101ae6004803603602081101561019857600080fd5b81019080803590602001909291905050506109a8565b005b3480156101bc57600080fd5b506101ff600480360360208110156101d357600080fd5b81019080803573ffffffffffffffffffffffffffffffffffffffff169060200190929190505050610a75565b005b34801561020d57600080fd5b50610216610b7c565b005b34801561022457600080fd5b5061027b6004803603606081101561023b57600080fd5b81019080803573ffffffffffffffffffffffffffffffffffffffff1690602001909291908035906020019092919080359060200190929190505050610b88565b005b34801561028957600080fd5b506102cc600480360360208110156102a057600080fd5b81019080803573ffffffffffffffffffffffffffffffffffffffff169060200190929190505050610cde565b005b3480156102da57600080fd5b50610391600480360360208110156102f157600080fd5b810190808035906020019064010000000081111561030e57600080fd5b82018360208201111561032057600080fd5b8035906020019184602083028401116401000000008311171561034257600080fd5b919080806020026020016040519081016040528093929190818152602001838360200280828437600081840152601f19601f820116905080830192505050505050509192919290505050611200565b005b34801561039f57600080fd5b506103e2600480360360208110156103b657600080fd5b81019080803573ffffffffffffffffffffffffffffffffffffffff1690602001909291905050506114e6565b6040518082815260200191505060405180910390f35b34801561040457600080fd5b5061040d61154b565b6040518082815260200191505060405180910390f35b34801561042f57600080fd5b506104726004803603602081101561044657600080fd5b81019080803573ffffffffffffffffffffffffffffffffffffffff169060200190929190505050611551565b6040518082815260200191505060405180910390f35b34801561049457600080fd5b5061049d6115b6565b6040518082815260200191505060405180910390f35b600460009054906101000a900473ffffffffffffffffffffffffffffffffffffffff1673ffffffffffffffffffffffffffffffffffffffff163373ffffffffffffffffffffffffffffffffffffffff1614610576576040517f08c379a00000000000000000000000000000000000000000000000000000000081526004018080602001828103825260158152602001807f53656e646572206973206e6f74206d616e61676572000000000000000000000081525060200191505060405180910390fd5b8060028190555050565b60008060008373ffffffffffffffffffffffffffffffffffffffff1673ffffffffffffffffffffffffffffffffffffffff16815260200190815260200160002060003373ffffffffffffffffffffffffffffffffffffffff1673ffffffffffffffffffffffffffffffffffffffff168152602001908152602001600020549050600061060b836114e6565b9050600061061884611551565b90508183420311610691576040517f08c379a00000000000000000000000000000000000000000000000000000000081526004018080602001828103825260188152602001807f436c61696d20496e74657276616c20746f6f2073686f7274000000000000000081525060200191505060405180910390fd5b426000808673ffffffffffffffffffffffffffffffffffffffff1673ffffffffffffffffffffffffffffffffffffffff16815260200190815260200160002060003373ffffffffffffffffffffffffffffffffffffffff1673ffffffffffffffffffffffffffffffffffffffff16815260200190815260200160002081905550600073ffffffffffffffffffffffffffffffffffffffff168473ffffffffffffffffffffffffffffffffffffffff1614156107ee578047101561079f576040517f08c379a00000000000000000000000000000000000000000000000000000000081526004018080602001828103825260448152602001806116216044913960600191505060405180910390fd5b3373ffffffffffffffffffffffffffffffffffffffff166108fc829081150290604051600060405180830381858888f193505050501580156107e5573d6000803e3d6000fd5b50505050610999565b808473ffffffffffffffffffffffffffffffffffffffff166370a08231306040518263ffffffff1660e01b8152600401808273ffffffffffffffffffffffffffffffffffffffff16815260200191505060206040518083038186803b15801561085657600080fd5b505afa15801561086a573d6000803e3d6000fd5b505050506040513d602081101561088057600080fd5b810190808051906020019092919050505010156108e8576040517f08c379a00000000000000000000000000000000000000000000000000000000081526004018080602001828103825260468152602001806116656046913960600191505060405180910390fd5b8373ffffffffffffffffffffffffffffffffffffffff1663a9059cbb33836040518363ffffffff1660e01b8152600401808373ffffffffffffffffffffffffffffffffffffffff16815260200182815260200192505050602060405180830381600087803b15801561095957600080fd5b505af115801561096d573d6000803e3d6000fd5b505050506040513d602081101561098357600080fd5b8101908080519060200190929190505050505050505b50565b6109a66000610580565b565b600460009054906101000a900473ffffffffffffffffffffffffffffffffffffffff1673ffffffffffffffffffffffffffffffffffffffff163373ffffffffffffffffffffffffffffffffffffffff1614610a6b576040517f08c379a00000000000000000000000000000000000000000000000000000000081526004018080602001828103825260158152602001807f53656e646572206973206e6f74206d616e61676572000000000000000000000081525060200191505060405180910390fd5b8060038190555050565b600460009054906101000a900473ffffffffffffffffffffffffffffffffffffffff1673ffffffffffffffffffffffffffffffffffffffff163373ffffffffffffffffffffffffffffffffffffffff1614610b38576040517f08c379a00000000000000000000000000000000000000000000000000000000081526004018080602001828103825260158152602001807f53656e646572206973206e6f74206d616e61676572000000000000000000000081525060200191505060405180910390fd5b80600460006101000a81548173ffffffffffffffffffffffffffffffffffffffff021916908373ffffffffffffffffffffffffffffffffffffffff16021790555050565b610b866000610cde565b565b600460009054906101000a900473ffffffffffffffffffffffffffffffffffffffff1673ffffffffffffffffffffffffffffffffffffffff163373ffffffffffffffffffffffffffffffffffffffff1614610c4b576040517f08c379a00000000000000000000000000000000000000000000000000000000081526004018080602001828103825260158152602001807f53656e646572206973206e6f74206d616e61676572000000000000000000000081525060200191505060405180910390fd5b81600160008573ffffffffffffffffffffffffffffffffffffffff1673ffffffffffffffffffffffffffffffffffffffff1681526020019081526020016000206001018190555080600160008573ffffffffffffffffffffffffffffffffffffffff1673ffffffffffffffffffffffffffffffffffffffff16815260200190815260200160002060000181905550505050565b6000610ce982611551565b9050600073ffffffffffffffffffffffffffffffffffffffff168273ffffffffffffffffffffffffffffffffffffffff161415610ecd57803373ffffffffffffffffffffffffffffffffffffffff163110610d8f576040517f08c379a00000000000000000000000000000000000000000000000000000000081526004018080602001828103825260278152602001806115bd6027913960400191505060405180910390fd5b426000808473ffffffffffffffffffffffffffffffffffffffff1673ffffffffffffffffffffffffffffffffffffffff16815260200190815260200160002060003373ffffffffffffffffffffffffffffffffffffffff1673ffffffffffffffffffffffffffffffffffffffff1681526020019081526020016000208190555080471015610e68576040517f08c379a000000000000000000000000000000000000000000000000000000000815260040180806020018281038252603b8152602001806116dc603b913960400191505060405180910390fd5b3373ffffffffffffffffffffffffffffffffffffffff166108fc3373ffffffffffffffffffffffffffffffffffffffff163183039081150290604051600060405180830381858888f19350505050158015610ec7573d6000803e3d6000fd5b5061117c565b60008273ffffffffffffffffffffffffffffffffffffffff166370a08231336040518263ffffffff1660e01b8152600401808273ffffffffffffffffffffffffffffffffffffffff16815260200191505060206040518083038186803b158015610f3657600080fd5b505afa158015610f4a573d6000803e3d6000fd5b505050506040513d6020811015610f6057600080fd5b81019080805190602001909291905050509050818110610fcb576040517f08c379a00000000000000000000000000000000000000000000000000000000081526004018080602001828103825260318152602001806116ab6031913960400191505060405180910390fd5b60008373ffffffffffffffffffffffffffffffffffffffff166370a08231306040518263ffffffff1660e01b8152600401808273ffffffffffffffffffffffffffffffffffffffff16815260200191505060206040518083038186803b15801561103457600080fd5b505afa158015611048573d6000803e3d6000fd5b505050506040513d602081101561105e57600080fd5b81019080805190602001909291905050509050828110156110ca576040517f08c379a000000000000000000000000000000000000000000000000000000000815260040180806020018281038252603d8152602001806115e4603d913960400191505060405180910390fd5b8373ffffffffffffffffffffffffffffffffffffffff1663a9059cbb338486036040518363ffffffff1660e01b8152600401808373ffffffffffffffffffffffffffffffffffffffff16815260200182815260200192505050602060405180830381600087803b15801561113d57600080fd5b505af1158015611151573d6000803e3d6000fd5b505050506040513d602081101561116757600080fd5b81019080805190602001909291905050505050505b426000808473ffffffffffffffffffffffffffffffffffffffff1673ffffffffffffffffffffffffffffffffffffffff16815260200190815260200160002060003373ffffffffffffffffffffffffffffffffffffffff1673ffffffffffffffffffffffffffffffffffffffff168152602001908152602001600020819055505050565b600460009054906101000a900473ffffffffffffffffffffffffffffffffffffffff1673ffffffffffffffffffffffffffffffffffffffff163373ffffffffffffffffffffffffffffffffffffffff16146112c3576040517f08c379a00000000000000000000000000000000000000000000000000000000081526004018080602001828103825260158152602001807f53656e646572206973206e6f74206d616e61676572000000000000000000000081525060200191505060405180910390fd5b60005b81518110156114e257600073ffffffffffffffffffffffffffffffffffffffff168282815181106112f357fe5b602002602001015173ffffffffffffffffffffffffffffffffffffffff161461148f5781818151811061132257fe5b602002602001015173ffffffffffffffffffffffffffffffffffffffff1663a9059cbb3384848151811061135257fe5b602002602001015173ffffffffffffffffffffffffffffffffffffffff166370a08231306040518263ffffffff1660e01b8152600401808273ffffffffffffffffffffffffffffffffffffffff16815260200191505060206040518083038186803b1580156113c057600080fd5b505afa1580156113d4573d6000803e3d6000fd5b505050506040513d60208110156113ea57600080fd5b81019080805190602001909291905050506040518363ffffffff1660e01b8152600401808373ffffffffffffffffffffffffffffffffffffffff16815260200182815260200192505050602060405180830381600087803b15801561144e57600080fd5b505af1158015611462573d6000803e3d6000fd5b505050506040513d602081101561147857600080fd5b8101908080519060200190929190505050506114d7565b3373ffffffffffffffffffffffffffffffffffffffff166108fc479081150290604051600060405180830381858888f193505050501580156114d5573d6000803e3d6000fd5b505b6001810190506112c6565b5050565b600080600160008473ffffffffffffffffffffffffffffffffffffffff1673ffffffffffffffffffffffffffffffffffffffff1681526020019081526020016000206001015490506000811461153f5780915050611546565b6002549150505b919050565b60025481565b600080600160008473ffffffffffffffffffffffffffffffffffffffff1673ffffffffffffffffffffffffffffffffffffffff168152602001908152602001600020600001549050600081146115aa57809150506115b1565b6003549150505b919050565b6003548156fe546865726520697320656e6f756e67682043465820696e2073656e64657227732077616c6c65744e6f20656e6f75676820746f6b656e20696e20746f6b656e20706f6f6c2e20506c65617365206e6f7469667920746865206661756365742061646d696e5468657265206973206e6f20656e6f7567682043465820696e20746865206661756365742e20506c65617365206e6f7469667920746865206661756365742061646d696e5468657265206973206e6f20656e6f75676820746f6b656e20696e20746865206661756365742e20506c65617365206e6f7469667920746865206661756365742061646d696e546865726520697320656e6f756e676820746f6b656e2062616c616e636520696e2073656e64657227732077616c6c65744e6f20656e6f7567682043465820696e20746f6b656e20706f6f6c2e20506c65617365206e6f7469667920746865206661756365742061646d696ea2646970667358221220d99fa65407cffa2505b1ffc634aff70c27b7cbb330ac9197a8a428c847214c3364736f6c634300060c0033",
  "immutableReferences": {},
  "source": "// SPDX-License-Identifier: MIT\npragma solidity >=0.6.2 <0.8.0;\n\nimport \"./SponsorWhitelistControl.sol\";\nimport \"@openzeppelin/contracts/token/ERC20/IERC20.sol\";\n\ncontract Faucet {\n    // lastTokenClaimRecord[tokenContractAddress][msg.sender] = lastClaimTimestamp\n    // 特殊地，0地址视为CFX的地址\n    mapping(address => mapping(address => uint256)) lastTokenClaimRecord;\n\n    struct ClaimSetting {\n        uint256 amount;\n        uint256 interval;\n    }\n\n    // 每类代币的interval和amount可以单独设置\n    // 特殊地，0地址视为CFX的地址\n    mapping(address => ClaimSetting) tokenClaimSettings;\n\n    // 两次领取的默认最小间隔 与 默认领取token的数量\n    // 当 tokenClaimSetting 中对应值为 0 时（即未设置） 会调用默认值\n    uint256 public defaultInterval = 3600 seconds;\n    uint256 public defaultAmount = 1000 * 1e18;\n\n    address internal _manager;\n\n    constructor() public {\n        _manager = msg.sender;\n        SponsorWhitelistControl cpc =\n            SponsorWhitelistControl(0x0888000000000000000000000000000000000001);\n        address[] memory a = new address[](1);\n        a[0] = address(0);\n        cpc.addPrivilege(a);\n    }\n\n    modifier onlyManager {\n        require(msg.sender == _manager, \"Sender is not manager\");\n        _;\n    }\n\n    function changeManager(address newManager) public onlyManager {\n        _manager = newManager;\n    }\n\n    // manager 可以将合约中的代币提取出来，在销毁合约时调用此方法\n    function retrieveToken(address [] memory tokenList) public onlyManager {\n        for(uint i = 0; i < tokenList.length; i += 1) {\n            if (tokenList[i] != address(0)) {\n                IERC20(tokenList[i]).transfer(msg.sender, IERC20(tokenList[i]).balanceOf(address(this)));\n            } else {\n                msg.sender.transfer(address(this).balance);\n            }\n        }\n    }\n\n    function getClaimInterval(address tokenContractAddress) public view returns (uint256) {\n        uint256 claimInterval = tokenClaimSettings[tokenContractAddress].interval;\n        if (claimInterval != 0) {\n            return claimInterval;\n        }\n        return defaultInterval;\n    }\n\n    function getClaimAmount(address tokenContractAddress) public view returns (uint256) {\n        uint256 claimAmount = tokenClaimSettings[tokenContractAddress].amount;\n        if (claimAmount != 0) {\n            return claimAmount;\n        }\n        return defaultAmount;\n    }\n\n    function setDefaultIntervalSeconds(uint256 intervalSeconds) public onlyManager {\n        defaultInterval = intervalSeconds;\n    }\n\n    // 设置默认领取 Token 的数量 注意该数是未考虑 decimals 的数，因此一般需要设置为一个大数\n    function setDefaultAmount(uint256 amount) public onlyManager {\n        defaultAmount = amount;\n    }\n\n    /**\n    @param tokenContractAddress 代币地址。如果传入0地址代表设置的是CFX\n    @param interval 领取的间隔 单位为秒\n    @param amount 设置每次领取 Token 的数量 注意该数是未考虑 decimals 的数，因此一般需要设置为一个大数\n     */\n    function setClaimSetting(address tokenContractAddress, uint256 interval, uint256 amount) public onlyManager {\n        tokenClaimSettings[tokenContractAddress].interval = interval;\n        tokenClaimSettings[tokenContractAddress].amount = amount;\n    }\n\n    function claimToken(address tokenContractAddress) public {\n        uint256 lastTs = lastTokenClaimRecord[tokenContractAddress][msg.sender];\n        uint256 interval = getClaimInterval(tokenContractAddress);\n        uint256 amount = getClaimAmount(tokenContractAddress);\n\n        require(\n            block.timestamp - lastTs > interval,\n            \"Claim Interval too short\"\n        );\n\n        lastTokenClaimRecord[tokenContractAddress][msg.sender] = block.timestamp;\n        if (tokenContractAddress == address(0)) {\n            require(\n                address(this).balance >= amount,\n                \"There is no enough CFX in the faucet. Please notify the faucet admin\"\n            );\n            msg.sender.transfer(amount);\n            return;\n        }\n        require(\n            IERC20(tokenContractAddress).balanceOf(address(this)) >= amount,\n            \"There is no enough token in the faucet. Please notify the faucet admin\"\n        );\n        IERC20(tokenContractAddress).transfer(msg.sender, amount);\n    }\n\n    // 这个接口依然保留\n    function claimCfx() public {\n        return claimToken(address(0));\n    }\n\n    function claimTokenRegardingSenderBalance(address tokenContractAddress) public {\n        uint256 amount = getClaimAmount(tokenContractAddress);\n\n        if (tokenContractAddress == address(0)) {\n            require(\n                msg.sender.balance < amount,\n                \"There is enoungh CFX in sender's wallet\"\n            );\n            lastTokenClaimRecord[tokenContractAddress][msg.sender] = block.timestamp;\n\n            // will revert if there is no enough cfx balance\n            require(\n                address(this).balance >= amount,\n                \"No enough CFX in token pool. Please notify the faucet admin\"\n            );\n            msg.sender.transfer(amount - msg.sender.balance);\n        } else {\n            uint256 balance = IERC20(tokenContractAddress).balanceOf(msg.sender);\n            require(\n                balance < amount,\n                \"There is enoungh token balance in sender's wallet\"\n            );\n\n            uint256 faucetBalance = IERC20(tokenContractAddress).balanceOf(address(this));\n            require(\n                faucetBalance >= amount,\n                \"No enough token in token pool. Please notify the faucet admin\"\n            );\n            IERC20(tokenContractAddress).transfer(msg.sender, amount - balance);\n        }\n\n        lastTokenClaimRecord[tokenContractAddress][msg.sender] = block.timestamp;\n    }\n\n    // 接口仍然保留\n    function claimCfxRegardingSenderBalance() public {\n        return claimTokenRegardingSenderBalance(address(0));\n    }\n\n    // 接受CFX转账时触发\n    receive() external payable {}\n}\n",
  "sourcePath": "/Users/zhangwenda/Documents/code/conflux-faucet/contracts/Faucet.sol",
  "compiler": {
    "name": "solc",
    "version": "0.6.12+commit.27d51765.Linux.g++"
  },
  "schemaVersion": "3.2.0",
  "updatedAt": "2021-06-07T12:49:52.004Z",
  "devdoc": {
    "kind": "dev",
    "methods": {
      "setClaimSetting(address,uint256,uint256)": {
        "params": {
          "amount": "设置每次领取 Token 的数量 注意该数是未考虑 decimals 的数，因此一般需要设置为一个大数",
          "interval": "领取的间隔 单位为秒",
          "tokenContractAddress": "代币地址。如果传入0地址代表设置的是CFX"
        }
      }
    },
    "version": 1
  },
  "userdoc": {
    "kind": "user",
    "methods": {},
    "version": 1
  }
}