{
  "contractName": "Faucet",
  "abi": [
    {
      "inputs": [],
      "stateMutability": "nonpayable",
      "type": "constructor"
    },
    {
      "inputs": [],
      "name": "defaultAmount",
      "outputs": [
        {
          "internalType": "uint256",
          "name": "",
          "type": "uint256"
        }
      ],
      "stateMutability": "view",
      "type": "function"
    },
    {
      "inputs": [],
      "name": "defaultInterval",
      "outputs": [
        {
          "internalType": "uint256",
          "name": "",
          "type": "uint256"
        }
      ],
      "stateMutability": "view",
      "type": "function"
    },
    {
      "stateMutability": "payable",
      "type": "receive"
    },
    {
      "inputs": [
        {
          "internalType": "address",
          "name": "newManager",
          "type": "address"
        }
      ],
      "name": "changeManager",
      "outputs": [],
      "stateMutability": "nonpayable",
      "type": "function"
    },
    {
      "inputs": [
        {
          "internalType": "address",
          "name": "tokenContractAddress",
          "type": "address"
        }
      ],
      "name": "getClaimInterval",
      "outputs": [
        {
          "internalType": "uint256",
          "name": "",
          "type": "uint256"
        }
      ],
      "stateMutability": "view",
      "type": "function"
    },
    {
      "inputs": [
        {
          "internalType": "address",
          "name": "tokenContractAddress",
          "type": "address"
        }
      ],
      "name": "getClaimAmount",
      "outputs": [
        {
          "internalType": "uint256",
          "name": "",
          "type": "uint256"
        }
      ],
      "stateMutability": "view",
      "type": "function"
    },
    {
      "inputs": [
        {
          "internalType": "uint256",
          "name": "intervalSeconds",
          "type": "uint256"
        }
      ],
      "name": "setDefaultIntervalSeconds",
      "outputs": [],
      "stateMutability": "nonpayable",
      "type": "function"
    },
    {
      "inputs": [
        {
          "internalType": "uint256",
          "name": "cfxAmount",
          "type": "uint256"
        }
      ],
      "name": "setDefaultAmount",
      "outputs": [],
      "stateMutability": "nonpayable",
      "type": "function"
    },
    {
      "inputs": [
        {
          "internalType": "address",
          "name": "tokenContractAddress",
          "type": "address"
        },
        {
          "internalType": "uint256",
          "name": "interval",
          "type": "uint256"
        },
        {
          "internalType": "uint256",
          "name": "amountForDecimals",
          "type": "uint256"
        },
        {
          "internalType": "uint256",
          "name": "decimals",
          "type": "uint256"
        }
      ],
      "name": "setClaimSetting",
      "outputs": [],
      "stateMutability": "nonpayable",
      "type": "function"
    },
    {
      "inputs": [],
      "name": "nextCfxClaim",
      "outputs": [
        {
          "internalType": "uint256",
          "name": "",
          "type": "uint256"
        }
      ],
      "stateMutability": "view",
      "type": "function"
    },
    {
      "inputs": [
        {
          "internalType": "address",
          "name": "tokenContractAddress",
          "type": "address"
        }
      ],
      "name": "nextTokenClaim",
      "outputs": [
        {
          "internalType": "uint256",
          "name": "",
          "type": "uint256"
        }
      ],
      "stateMutability": "view",
      "type": "function"
    },
    {
      "inputs": [
        {
          "internalType": "address",
          "name": "tokenContractAddress",
          "type": "address"
        }
      ],
      "name": "claimToken",
      "outputs": [],
      "stateMutability": "nonpayable",
      "type": "function"
    },
    {
      "inputs": [],
      "name": "claimCfx",
      "outputs": [],
      "stateMutability": "nonpayable",
      "type": "function"
    },
    {
      "inputs": [
        {
          "internalType": "address",
          "name": "tokenContractAddress",
          "type": "address"
        }
      ],
      "name": "claimTokenRegardingSenderBalance",
      "outputs": [],
      "stateMutability": "nonpayable",
      "type": "function"
    },
    {
      "inputs": [],
      "name": "claimCfxRegardingSenderBalance",
      "outputs": [],
      "stateMutability": "nonpayable",
      "type": "function"
    }
  ],
  "bytecode": "0x6080604052610e10600255683635c9adc5dea0000060035534801561002357600080fd5b5033600460006101000a81548173ffffffffffffffffffffffffffffffffffffffff021916908373ffffffffffffffffffffffffffffffffffffffff160217905550600073088800000000000000000000000000000000000190506060600167ffffffffffffffff8111801561009857600080fd5b506040519080825280602002602001820160405280156100c75781602001602082028036833780820191505090505b5090506000816000815181106100d957fe5b602002602001019073ffffffffffffffffffffffffffffffffffffffff16908173ffffffffffffffffffffffffffffffffffffffff16815250508173ffffffffffffffffffffffffffffffffffffffff166310128d3e826040518263ffffffff1660e01b81526004018080602001828103825283818151815260200191508051906020019060200280838360005b83811015610182578082015181840152602081019050610167565b5050505090500192505050600060405180830381600087803b1580156101a757600080fd5b505af11580156101bb573d6000803e3d6000fd5b505050505050611534806101d06000396000f3fe6080604052600436106100e15760003560e01c8063a3fbbaae1161007f578063c57bb04c11610059578063c57bb04c14610383578063d1ac71fb146103e8578063dde070e814610413578063fc27ea8314610478576100e8565b8063a3fbbaae146102ca578063b29bfb881461031b578063bb53cb2714610332576100e8565b80635f3cc9f7116100bb5780635f3cc9f7146101a457806360e2a7c1146101bb5780637a4102b8146102205780637ccf115b1461025b576100e8565b80632b76b3f1146100ed5780632d3e8d5e1461012857806332f289cf14610153576100e8565b366100e857005b600080fd5b3480156100f957600080fd5b506101266004803603602081101561011057600080fd5b81019080803590602001909291905050506104a3565b005b34801561013457600080fd5b5061013d610570565b6040518082815260200191505060405180910390f35b34801561015f57600080fd5b506101a26004803603602081101561017657600080fd5b81019080803573ffffffffffffffffffffffffffffffffffffffff169060200190929190505050610581565b005b3480156101b057600080fd5b506101b961099d565b005b3480156101c757600080fd5b5061020a600480360360208110156101de57600080fd5b81019080803573ffffffffffffffffffffffffffffffffffffffff1690602001909291905050506109a9565b6040518082815260200191505060405180910390f35b34801561022c57600080fd5b506102596004803603602081101561024357600080fd5b8101908080359060200190929190505050610a66565b005b34801561026757600080fd5b506102c86004803603608081101561027e57600080fd5b81019080803573ffffffffffffffffffffffffffffffffffffffff169060200190929190803590602001909291908035906020019092919080359060200190929190505050610b3d565b005b3480156102d657600080fd5b50610319600480360360208110156102ed57600080fd5b81019080803573ffffffffffffffffffffffffffffffffffffffff169060200190929190505050610c99565b005b34801561032757600080fd5b50610330610da0565b005b34801561033e57600080fd5b506103816004803603602081101561035557600080fd5b81019080803573ffffffffffffffffffffffffffffffffffffffff169060200190929190505050610dac565b005b34801561038f57600080fd5b506103d2600480360360208110156103a657600080fd5b81019080803573ffffffffffffffffffffffffffffffffffffffff1690602001909291905050506112ce565b6040518082815260200191505060405180910390f35b3480156103f457600080fd5b506103fd611333565b6040518082815260200191505060405180910390f35b34801561041f57600080fd5b506104626004803603602081101561043657600080fd5b81019080803573ffffffffffffffffffffffffffffffffffffffff169060200190929190505050611339565b6040518082815260200191505060405180910390f35b34801561048457600080fd5b5061048d61139e565b6040518082815260200191505060405180910390f35b600460009054906101000a900473ffffffffffffffffffffffffffffffffffffffff1673ffffffffffffffffffffffffffffffffffffffff163373ffffffffffffffffffffffffffffffffffffffff1614610566576040517f08c379a00000000000000000000000000000000000000000000000000000000081526004018080602001828103825260158152602001807f53656e646572206973206e6f74206d616e61676572000000000000000000000081525060200191505060405180910390fd5b8060028190555050565b600061057c60006109a9565b905090565b60008060008373ffffffffffffffffffffffffffffffffffffffff1673ffffffffffffffffffffffffffffffffffffffff16815260200190815260200160002060003373ffffffffffffffffffffffffffffffffffffffff1673ffffffffffffffffffffffffffffffffffffffff168152602001908152602001600020549050600061060c836112ce565b9050600061061984611339565b90508183420311610692576040517f08c379a00000000000000000000000000000000000000000000000000000000081526004018080602001828103825260188152602001807f436c61696d20496e74657276616c20746f6f2073686f7274000000000000000081525060200191505060405180910390fd5b426000808673ffffffffffffffffffffffffffffffffffffffff1673ffffffffffffffffffffffffffffffffffffffff16815260200190815260200160002060003373ffffffffffffffffffffffffffffffffffffffff1673ffffffffffffffffffffffffffffffffffffffff16815260200190815260200160002081905550600073ffffffffffffffffffffffffffffffffffffffff168473ffffffffffffffffffffffffffffffffffffffff1614156107ef57804710156107a0576040517f08c379a00000000000000000000000000000000000000000000000000000000081526004018080602001828103825260448152602001806114096044913960600191505060405180910390fd5b3373ffffffffffffffffffffffffffffffffffffffff166108fc829081150290604051600060405180830381858888f193505050501580156107e6573d6000803e3d6000fd5b5050505061099a565b808473ffffffffffffffffffffffffffffffffffffffff166370a08231306040518263ffffffff1660e01b8152600401808273ffffffffffffffffffffffffffffffffffffffff16815260200191505060206040518083038186803b15801561085757600080fd5b505afa15801561086b573d6000803e3d6000fd5b505050506040513d602081101561088157600080fd5b810190808051906020019092919050505010156108e9576040517f08c379a000000000000000000000000000000000000000000000000000000000815260040180806020018281038252604681526020018061144d6046913960600191505060405180910390fd5b8373ffffffffffffffffffffffffffffffffffffffff1663a9059cbb33836040518363ffffffff1660e01b8152600401808373ffffffffffffffffffffffffffffffffffffffff16815260200182815260200192505050602060405180830381600087803b15801561095a57600080fd5b505af115801561096e573d6000803e3d6000fd5b505050506040513d602081101561098457600080fd5b8101908080519060200190929190505050505050505b50565b6109a76000610581565b565b6000806000808473ffffffffffffffffffffffffffffffffffffffff1673ffffffffffffffffffffffffffffffffffffffff16815260200190815260200160002060003373ffffffffffffffffffffffffffffffffffffffff1673ffffffffffffffffffffffffffffffffffffffff1681526020019081526020016000205490506000610a35846112ce565b90506000821480610a47575080824203105b15610a5757600092505050610a61565b8082420303925050505b919050565b600460009054906101000a900473ffffffffffffffffffffffffffffffffffffffff1673ffffffffffffffffffffffffffffffffffffffff163373ffffffffffffffffffffffffffffffffffffffff1614610b29576040517f08c379a00000000000000000000000000000000000000000000000000000000081526004018080602001828103825260158152602001807f53656e646572206973206e6f74206d616e61676572000000000000000000000081525060200191505060405180910390fd5b670de0b6b3a7640000810260038190555050565b600460009054906101000a900473ffffffffffffffffffffffffffffffffffffffff1673ffffffffffffffffffffffffffffffffffffffff163373ffffffffffffffffffffffffffffffffffffffff1614610c00576040517f08c379a00000000000000000000000000000000000000000000000000000000081526004018080602001828103825260158152602001807f53656e646572206973206e6f74206d616e61676572000000000000000000000081525060200191505060405180910390fd5b82600160008673ffffffffffffffffffffffffffffffffffffffff1673ffffffffffffffffffffffffffffffffffffffff1681526020019081526020016000206001018190555080600a0a8202600160008673ffffffffffffffffffffffffffffffffffffffff1673ffffffffffffffffffffffffffffffffffffffff1681526020019081526020016000206000018190555050505050565b600460009054906101000a900473ffffffffffffffffffffffffffffffffffffffff1673ffffffffffffffffffffffffffffffffffffffff163373ffffffffffffffffffffffffffffffffffffffff1614610d5c576040517f08c379a00000000000000000000000000000000000000000000000000000000081526004018080602001828103825260158152602001807f53656e646572206973206e6f74206d616e61676572000000000000000000000081525060200191505060405180910390fd5b80600460006101000a81548173ffffffffffffffffffffffffffffffffffffffff021916908373ffffffffffffffffffffffffffffffffffffffff16021790555050565b610daa6000610dac565b565b6000610db782611339565b9050600073ffffffffffffffffffffffffffffffffffffffff168273ffffffffffffffffffffffffffffffffffffffff161415610f9b57803373ffffffffffffffffffffffffffffffffffffffff163110610e5d576040517f08c379a00000000000000000000000000000000000000000000000000000000081526004018080602001828103825260278152602001806113a56027913960400191505060405180910390fd5b426000808473ffffffffffffffffffffffffffffffffffffffff1673ffffffffffffffffffffffffffffffffffffffff16815260200190815260200160002060003373ffffffffffffffffffffffffffffffffffffffff1673ffffffffffffffffffffffffffffffffffffffff1681526020019081526020016000208190555080471015610f36576040517f08c379a000000000000000000000000000000000000000000000000000000000815260040180806020018281038252603b8152602001806114c4603b913960400191505060405180910390fd5b3373ffffffffffffffffffffffffffffffffffffffff166108fc3373ffffffffffffffffffffffffffffffffffffffff163183039081150290604051600060405180830381858888f19350505050158015610f95573d6000803e3d6000fd5b5061124a565b60008273ffffffffffffffffffffffffffffffffffffffff166370a08231336040518263ffffffff1660e01b8152600401808273ffffffffffffffffffffffffffffffffffffffff16815260200191505060206040518083038186803b15801561100457600080fd5b505afa158015611018573d6000803e3d6000fd5b505050506040513d602081101561102e57600080fd5b81019080805190602001909291905050509050818110611099576040517f08c379a00000000000000000000000000000000000000000000000000000000081526004018080602001828103825260318152602001806114936031913960400191505060405180910390fd5b60008373ffffffffffffffffffffffffffffffffffffffff166370a08231306040518263ffffffff1660e01b8152600401808273ffffffffffffffffffffffffffffffffffffffff16815260200191505060206040518083038186803b15801561110257600080fd5b505afa158015611116573d6000803e3d6000fd5b505050506040513d602081101561112c57600080fd5b8101908080519060200190929190505050905082811015611198576040517f08c379a000000000000000000000000000000000000000000000000000000000815260040180806020018281038252603d8152602001806113cc603d913960400191505060405180910390fd5b8373ffffffffffffffffffffffffffffffffffffffff1663a9059cbb338486036040518363ffffffff1660e01b8152600401808373ffffffffffffffffffffffffffffffffffffffff16815260200182815260200192505050602060405180830381600087803b15801561120b57600080fd5b505af115801561121f573d6000803e3d6000fd5b505050506040513d602081101561123557600080fd5b81019080805190602001909291905050505050505b426000808473ffffffffffffffffffffffffffffffffffffffff1673ffffffffffffffffffffffffffffffffffffffff16815260200190815260200160002060003373ffffffffffffffffffffffffffffffffffffffff1673ffffffffffffffffffffffffffffffffffffffff168152602001908152602001600020819055505050565b600080600160008473ffffffffffffffffffffffffffffffffffffffff1673ffffffffffffffffffffffffffffffffffffffff16815260200190815260200160002060010154905060008114611327578091505061132e565b6002549150505b919050565b60025481565b600080600160008473ffffffffffffffffffffffffffffffffffffffff1673ffffffffffffffffffffffffffffffffffffffff168152602001908152602001600020600001549050600081146113925780915050611399565b6003549150505b919050565b6003548156fe546865726520697320656e6f756e67682043465820696e2073656e64657227732077616c6c65744e6f20656e6f75676820746f6b656e20696e20746f6b656e20706f6f6c2e20506c65617365206e6f7469667920746865206661756365742061646d696e5468657265206973206e6f20656e6f7567682043465820696e20746865206661756365742e20506c65617365206e6f7469667920746865206661756365742061646d696e5468657265206973206e6f20656e6f75676820746f6b656e20696e20746865206661756365742e20506c65617365206e6f7469667920746865206661756365742061646d696e546865726520697320656e6f756e676820746f6b656e2062616c616e636520696e2073656e64657227732077616c6c65744e6f20656e6f7567682043465820696e20746f6b656e20706f6f6c2e20506c65617365206e6f7469667920746865206661756365742061646d696ea26469706673582212200dbf8dee350b427b176a6c82af6406bafbf9603acffd4fa2830656db8c3ed0ef64736f6c634300060c0033",
  "immutableReferences": {},
  "source": "// SPDX-License-Identifier: MIT\npragma solidity >=0.6.2 <0.8.0;\n\nimport \"./SponsorWhitelistControl.sol\";\nimport \"@openzeppelin/contracts/token/ERC20/IERC20.sol\";\n\ncontract Faucet {\n    // lastTokenClaimRecord[tokenContractAddress][msg.sender] = lastClaimTimestamp\n    // 特殊地，0地址视为CFX的地址\n    mapping(address => mapping(address => uint256)) lastTokenClaimRecord;\n\n    struct ClaimSetting {\n        uint256 amount;\n        uint256 interval;\n    }\n\n    // 每类代币的interval和amount可以单独设置\n    // 特殊地，0地址视为CFX的地址\n    mapping(address => ClaimSetting) tokenClaimSettings;\n\n    // 两次领取的默认最小间隔 与 默认领取token的数量\n    // 当 tokenClaimSetting 中对应值为 0 时（即未设置） 会调用默认值\n    uint256 public defaultInterval = 3600 seconds;\n    uint256 public defaultAmount = 1000 * 1e18;\n\n    address internal _manager;\n\n    constructor() public {\n        _manager = msg.sender;\n        SponsorWhitelistControl cpc =\n            SponsorWhitelistControl(0x0888000000000000000000000000000000000001);\n        address[] memory a = new address[](1);\n        a[0] = address(0);\n        cpc.addPrivilege(a);\n    }\n\n    modifier onlyManager {\n        require(msg.sender == _manager, \"Sender is not manager\");\n        _;\n    }\n\n    function changeManager(address newManager) public onlyManager {\n        _manager = newManager;\n    }\n\n    function getClaimInterval(address tokenContractAddress) public view returns (uint256) {\n        uint256 claimInterval = tokenClaimSettings[tokenContractAddress].interval;\n        if (claimInterval != 0) {\n            return claimInterval;\n        }\n        return defaultInterval;\n    }\n\n    function getClaimAmount(address tokenContractAddress) public view returns (uint256) {\n        uint256 claimAmount = tokenClaimSettings[tokenContractAddress].amount;\n        if (claimAmount != 0) {\n            return claimAmount;\n        }\n        return defaultAmount;\n    }\n\n    function setDefaultIntervalSeconds(uint256 intervalSeconds) public onlyManager {\n        defaultInterval = intervalSeconds;\n    }\n\n    function setDefaultAmount(uint256 cfxAmount) public onlyManager {\n        defaultAmount = cfxAmount * 1e18;\n    }\n\n    // set interval / amount to 0 means using default setting\n    function setClaimSetting(address tokenContractAddress, uint256 interval, uint256 amountForDecimals, uint256 decimals) public onlyManager {\n        tokenClaimSettings[tokenContractAddress].interval = interval;\n        tokenClaimSettings[tokenContractAddress].amount = amountForDecimals * (10**decimals);\n    }\n\n    function nextCfxClaim() public view returns (uint256) {\n        return nextTokenClaim(address(0));\n    }\n\n    function nextTokenClaim(address tokenContractAddress)\n        public\n        view\n        returns (uint256)\n    {\n        uint256 lastTs = lastTokenClaimRecord[tokenContractAddress][msg.sender];\n        uint256 interval = getClaimInterval(tokenContractAddress);\n        if (lastTs == 0 || block.timestamp - lastTs < interval) {\n            return 0;\n        } else {\n            return block.timestamp - lastTs - interval;\n        }\n    }\n\n    function claimToken(address tokenContractAddress) public {\n        uint256 lastTs = lastTokenClaimRecord[tokenContractAddress][msg.sender];\n        uint256 interval = getClaimInterval(tokenContractAddress);\n        uint256 amount = getClaimAmount(tokenContractAddress);\n\n        require(\n            block.timestamp - lastTs > interval,\n            \"Claim Interval too short\"\n        );\n\n        lastTokenClaimRecord[tokenContractAddress][msg.sender] = block.timestamp;\n        if (tokenContractAddress == address(0)) {\n            require(\n                address(this).balance >= amount,\n                \"There is no enough CFX in the faucet. Please notify the faucet admin\"\n            );\n            msg.sender.transfer(amount);\n            return;\n        }\n        require(\n            IERC20(tokenContractAddress).balanceOf(address(this)) >= amount,\n            \"There is no enough token in the faucet. Please notify the faucet admin\"\n        );\n        IERC20(tokenContractAddress).transfer(msg.sender, amount);\n    }\n\n    // 这个接口依然保留\n    function claimCfx() public {\n        return claimToken(address(0));\n    }\n\n    function claimTokenRegardingSenderBalance(address tokenContractAddress) public {\n        uint256 amount = getClaimAmount(tokenContractAddress);\n\n        if (tokenContractAddress == address(0)) {\n            require(\n                msg.sender.balance < amount,\n                \"There is enoungh CFX in sender's wallet\"\n            );\n            lastTokenClaimRecord[tokenContractAddress][msg.sender] = block.timestamp;\n\n            // will revert if there is no enough cfx balance\n            require(\n                address(this).balance >= amount,\n                \"No enough CFX in token pool. Please notify the faucet admin\"\n            );\n            msg.sender.transfer(amount - msg.sender.balance);\n        } else {\n            uint256 balance = IERC20(tokenContractAddress).balanceOf(msg.sender);\n            require(\n                balance < amount,\n                \"There is enoungh token balance in sender's wallet\"\n            );\n\n            uint256 faucetBalance = IERC20(tokenContractAddress).balanceOf(address(this));\n            require(\n                faucetBalance >= amount,\n                \"No enough token in token pool. Please notify the faucet admin\"\n            );\n            IERC20(tokenContractAddress).transfer(msg.sender, amount - balance);\n        }\n\n        lastTokenClaimRecord[tokenContractAddress][msg.sender] = block.timestamp;\n    }\n\n    // 接口仍然保留\n    function claimCfxRegardingSenderBalance() public {\n        return claimTokenRegardingSenderBalance(address(0));\n    }\n\n    // 接受CFX转账时触发\n    receive() external payable {}\n}\n",
  "sourcePath": "/Users/zhangwenda/Documents/code/conflux-faucet/contracts/Faucet.sol",
  "compiler": {
    "name": "solc",
    "version": "0.6.12+commit.27d51765.Linux.g++"
  },
  "schemaVersion": "3.2.0",
  "updatedAt": "2021-06-05T08:23:34.987Z",
  "devdoc": {
    "kind": "dev",
    "methods": {},
    "version": 1
  },
  "userdoc": {
    "kind": "user",
    "methods": {},
    "version": 1
  }
}