{
  "contractName": "Faucet",
  "abi": [
    {
      "inputs": [],
      "stateMutability": "nonpayable",
      "type": "constructor"
    },
    {
      "inputs": [],
      "name": "defaultAmount",
      "outputs": [
        {
          "internalType": "uint256",
          "name": "",
          "type": "uint256"
        }
      ],
      "stateMutability": "view",
      "type": "function"
    },
    {
      "inputs": [],
      "name": "interval",
      "outputs": [
        {
          "internalType": "uint256",
          "name": "",
          "type": "uint256"
        }
      ],
      "stateMutability": "view",
      "type": "function"
    },
    {
      "stateMutability": "payable",
      "type": "receive"
    },
    {
      "inputs": [
        {
          "internalType": "address",
          "name": "newManager",
          "type": "address"
        }
      ],
      "name": "changeManager",
      "outputs": [],
      "stateMutability": "nonpayable",
      "type": "function"
    },
    {
      "inputs": [
        {
          "internalType": "uint256",
          "name": "intervalSeconds",
          "type": "uint256"
        }
      ],
      "name": "changeIntervalSeconds",
      "outputs": [],
      "stateMutability": "nonpayable",
      "type": "function"
    },
    {
      "inputs": [
        {
          "internalType": "uint256",
          "name": "cfxAmount",
          "type": "uint256"
        }
      ],
      "name": "changeDefaultAmount",
      "outputs": [],
      "stateMutability": "nonpayable",
      "type": "function"
    },
    {
      "inputs": [],
      "name": "nextCfxClaim",
      "outputs": [
        {
          "internalType": "uint256",
          "name": "",
          "type": "uint256"
        }
      ],
      "stateMutability": "view",
      "type": "function"
    },
    {
      "inputs": [
        {
          "internalType": "address",
          "name": "tokenContractAddress",
          "type": "address"
        }
      ],
      "name": "nextTokenClaim",
      "outputs": [
        {
          "internalType": "uint256",
          "name": "",
          "type": "uint256"
        }
      ],
      "stateMutability": "view",
      "type": "function"
    },
    {
      "inputs": [
        {
          "internalType": "address",
          "name": "tokenContractAddress",
          "type": "address"
        }
      ],
      "name": "claimToken",
      "outputs": [],
      "stateMutability": "nonpayable",
      "type": "function"
    },
    {
      "inputs": [],
      "name": "claimCfx",
      "outputs": [],
      "stateMutability": "payable",
      "type": "function"
    }
  ],
  "bytecode": "0x60806040526078600255670de0b6b3a764000060035534801561002157600080fd5b5033600460006101000a81548173ffffffffffffffffffffffffffffffffffffffff021916908373ffffffffffffffffffffffffffffffffffffffff160217905550610a2a806100726000396000f3fe60806040526004361061008a5760003560e01c8063947a36fb11610059578063947a36fb14610181578063a3fbbaae146101ac578063d792eca6146101fd578063dee48d6214610238578063fc27ea831461027357610091565b80632d3e8d5e1461009657806332f289cf146100c15780635f3cc9f71461011257806360e2a7c11461011c57610091565b3661009157005b600080fd5b3480156100a257600080fd5b506100ab61029e565b6040518082815260200191505060405180910390f35b3480156100cd57600080fd5b50610110600480360360208110156100e457600080fd5b81019080803573ffffffffffffffffffffffffffffffffffffffff169060200190929190505050610312565b005b61011a61053e565b005b34801561012857600080fd5b5061016b6004803603602081101561013f57600080fd5b81019080803573ffffffffffffffffffffffffffffffffffffffff16906020019092919050505061068b565b6040518082815260200191505060405180910390f35b34801561018d57600080fd5b5061019661073d565b6040518082815260200191505060405180910390f35b3480156101b857600080fd5b506101fb600480360360208110156101cf57600080fd5b81019080803573ffffffffffffffffffffffffffffffffffffffff169060200190929190505050610743565b005b34801561020957600080fd5b506102366004803603602081101561022057600080fd5b810190808035906020019092919050505061084a565b005b34801561024457600080fd5b506102716004803603602081101561025b57600080fd5b8101908080359060200190929190505050610921565b005b34801561027f57600080fd5b506102886109ee565b6040518082815260200191505060405180910390f35b600080600160003373ffffffffffffffffffffffffffffffffffffffff1673ffffffffffffffffffffffffffffffffffffffff16815260200190815260200160002054905060008114806102f55750600254814203105b1561030457600091505061030f565b600254814203039150505b90565b60008060008373ffffffffffffffffffffffffffffffffffffffff1673ffffffffffffffffffffffffffffffffffffffff16815260200190815260200160002060003373ffffffffffffffffffffffffffffffffffffffff1673ffffffffffffffffffffffffffffffffffffffff1681526020019081526020016000205490506002548142031161040b576040517f08c379a00000000000000000000000000000000000000000000000000000000081526004018080602001828103825260188152602001807f436c61696d20696e74657276616c20746f6f2073686f7274000000000000000081525060200191505060405180910390fd5b426000808473ffffffffffffffffffffffffffffffffffffffff1673ffffffffffffffffffffffffffffffffffffffff16815260200190815260200160002060003373ffffffffffffffffffffffffffffffffffffffff1673ffffffffffffffffffffffffffffffffffffffff168152602001908152602001600020819055508173ffffffffffffffffffffffffffffffffffffffff1663a9059cbb336003546040518363ffffffff1660e01b8152600401808373ffffffffffffffffffffffffffffffffffffffff16815260200182815260200192505050602060405180830381600087803b1580156104fe57600080fd5b505af1158015610512573d6000803e3d6000fd5b505050506040513d602081101561052857600080fd5b8101908080519060200190929190505050505050565b6000600160003373ffffffffffffffffffffffffffffffffffffffff1673ffffffffffffffffffffffffffffffffffffffff168152602001908152602001600020549050600254814203116105fb576040517f08c379a00000000000000000000000000000000000000000000000000000000081526004018080602001828103825260188152602001807f436c61696d20696e74657276616c20746f6f2073686f7274000000000000000081525060200191505060405180910390fd5b42600160003373ffffffffffffffffffffffffffffffffffffffff1673ffffffffffffffffffffffffffffffffffffffff168152602001908152602001600020819055503373ffffffffffffffffffffffffffffffffffffffff166108fc6003549081150290604051600060405180830381858888f19350505050158015610687573d6000803e3d6000fd5b5050565b6000806000808473ffffffffffffffffffffffffffffffffffffffff1673ffffffffffffffffffffffffffffffffffffffff16815260200190815260200160002060003373ffffffffffffffffffffffffffffffffffffffff1673ffffffffffffffffffffffffffffffffffffffff168152602001908152602001600020549050600081148061071e5750600254814203105b1561072d576000915050610738565b600254814203039150505b919050565b60025481565b600460009054906101000a900473ffffffffffffffffffffffffffffffffffffffff1673ffffffffffffffffffffffffffffffffffffffff163373ffffffffffffffffffffffffffffffffffffffff1614610806576040517f08c379a00000000000000000000000000000000000000000000000000000000081526004018080602001828103825260158152602001807f53656e646572206973206e6f74206d616e61676572000000000000000000000081525060200191505060405180910390fd5b80600460006101000a81548173ffffffffffffffffffffffffffffffffffffffff021916908373ffffffffffffffffffffffffffffffffffffffff16021790555050565b600460009054906101000a900473ffffffffffffffffffffffffffffffffffffffff1673ffffffffffffffffffffffffffffffffffffffff163373ffffffffffffffffffffffffffffffffffffffff161461090d576040517f08c379a00000000000000000000000000000000000000000000000000000000081526004018080602001828103825260158152602001807f53656e646572206973206e6f74206d616e61676572000000000000000000000081525060200191505060405180910390fd5b670de0b6b3a7640000810260038190555050565b600460009054906101000a900473ffffffffffffffffffffffffffffffffffffffff1673ffffffffffffffffffffffffffffffffffffffff163373ffffffffffffffffffffffffffffffffffffffff16146109e4576040517f08c379a00000000000000000000000000000000000000000000000000000000081526004018080602001828103825260158152602001807f53656e646572206973206e6f74206d616e61676572000000000000000000000081525060200191505060405180910390fd5b8060028190555050565b6003548156fea26469706673582212205ac3475a4f840db54046f15fab40138bfe9c07942912f1cbaa3851b4cbfb749564736f6c634300060c0033",
  "immutableReferences": {},
  "source": "// SPDX-License-Identifier: MIT\npragma solidity >=0.6.2 <0.8.0;\n\nimport \"@openzeppelin/contracts/token/ERC20/IERC20.sol\";\n\ncontract Faucet {\n    // lastTokenClaimRecord[tokenContractAddress][msg.sender] = lastClaimTimestamp\n    mapping(address => mapping(address => uint256)) lastTokenClaimRecord;\n    \n    mapping(address => uint256) lastCfxClaimRecord;\n\n    // 两次领取的间隔\n    uint256 public interval = 120 seconds;\n\n    // 更改默认Claim token的数量\n    uint256 public defaultAmount = 1e18;\n\n    address internal _manager;\n\n\n    // constructor(uint _interval, uint256 _defaultAmount) public {\n    constructor() public {\n        // interval = _interval;\n        // defaultAmount = _defaultAmount;\n        _manager = msg.sender;\n    }\n\n    modifier onlyManager {\n        require(msg.sender == _manager, \"Sender is not manager\");\n        _;\n    }\n\n    function changeManager(address newManager) public onlyManager {\n        _manager = newManager;\n    }\n\n    //\n    function changeIntervalSeconds(uint256 intervalSeconds) public onlyManager {\n        interval = intervalSeconds;\n    }\n\n    function changeDefaultAmount(uint256 cfxAmount) public onlyManager {\n        defaultAmount = cfxAmount * 1e18;\n    }\n\n    function nextCfxClaim()\n        public\n        view\n        returns (uint256)\n    {\n        uint256 lastTs = lastCfxClaimRecord[msg.sender];\n        if (lastTs == 0 || block.timestamp - lastTs < interval) {\n            return 0;\n        } else {\n            return block.timestamp - lastTs - interval;\n        }\n    }\n    function nextTokenClaim(address tokenContractAddress)\n        public\n        view\n        returns (uint256)\n    {\n        uint256 lastTs = lastTokenClaimRecord[tokenContractAddress][msg.sender];\n        if (lastTs == 0 || block.timestamp - lastTs < interval) {\n            return 0;\n        } else {\n            return block.timestamp - lastTs - interval;\n        }\n    }\n\n    function claimToken(address tokenContractAddress) public {\n        uint256 lastTs = lastTokenClaimRecord[tokenContractAddress][msg.sender];\n        require(\n            block.timestamp - lastTs > interval,\n            \"Claim interval too short\"\n        );\n        lastTokenClaimRecord[tokenContractAddress][msg.sender] = block\n            .timestamp;\n        IERC20(tokenContractAddress).transfer(msg.sender, defaultAmount);\n    }\n\n    function claimCfx() public payable {\n        uint256 lastTs = lastCfxClaimRecord[msg.sender];\n        require(\n            block.timestamp - lastTs > interval,\n            \"Claim interval too short\"\n        );\n        lastCfxClaimRecord[msg.sender] = block.timestamp;\n        // will revert if there is no enough cfx balance\n        msg.sender.transfer(defaultAmount);\n    }\n\n    // 接受CFX转账时触发\n    receive() external payable {}\n}\n",
  "sourcePath": "/Users/zhangwenda/Documents/code/ConfluxTestnetFaucet/contracts/Faucet.sol",
  "compiler": {
    "name": "solc",
    "version": "0.6.12+commit.27d51765.Linux.g++"
  },
  "schemaVersion": "3.2.0",
  "updatedAt": "2021-05-23T06:44:58.270Z",
  "devdoc": {
    "kind": "dev",
    "methods": {},
    "version": 1
  },
  "userdoc": {
    "kind": "user",
    "methods": {},
    "version": 1
  }
}