{
  "contractName": "Faucet",
  "abi": [
    {
      "inputs": [],
      "stateMutability": "nonpayable",
      "type": "constructor"
    },
    {
      "inputs": [],
      "name": "defaultAmount",
      "outputs": [
        {
          "internalType": "uint256",
          "name": "",
          "type": "uint256"
        }
      ],
      "stateMutability": "view",
      "type": "function"
    },
    {
      "inputs": [],
      "name": "defaultInterval",
      "outputs": [
        {
          "internalType": "uint256",
          "name": "",
          "type": "uint256"
        }
      ],
      "stateMutability": "view",
      "type": "function"
    },
    {
      "stateMutability": "payable",
      "type": "receive"
    },
    {
      "inputs": [
        {
          "internalType": "address",
          "name": "newManager",
          "type": "address"
        }
      ],
      "name": "changeManager",
      "outputs": [],
      "stateMutability": "nonpayable",
      "type": "function"
    },
    {
      "inputs": [
        {
          "internalType": "address",
          "name": "tokenContractAddress",
          "type": "address"
        }
      ],
      "name": "getClaimInterval",
      "outputs": [
        {
          "internalType": "uint256",
          "name": "",
          "type": "uint256"
        }
      ],
      "stateMutability": "view",
      "type": "function"
    },
    {
      "inputs": [
        {
          "internalType": "address",
          "name": "tokenContractAddress",
          "type": "address"
        }
      ],
      "name": "getClaimAmount",
      "outputs": [
        {
          "internalType": "uint256",
          "name": "",
          "type": "uint256"
        }
      ],
      "stateMutability": "view",
      "type": "function"
    },
    {
      "inputs": [
        {
          "internalType": "uint256",
          "name": "intervalSeconds",
          "type": "uint256"
        }
      ],
      "name": "setDefaultIntervalSeconds",
      "outputs": [],
      "stateMutability": "nonpayable",
      "type": "function"
    },
    {
      "inputs": [
        {
          "internalType": "uint256",
          "name": "cfxAmount",
          "type": "uint256"
        }
      ],
      "name": "setDefaultAmount",
      "outputs": [],
      "stateMutability": "nonpayable",
      "type": "function"
    },
    {
      "inputs": [
        {
          "internalType": "address",
          "name": "tokenContractAddress",
          "type": "address"
        },
        {
          "internalType": "uint256",
          "name": "interval",
          "type": "uint256"
        },
        {
          "internalType": "uint256",
          "name": "amountForDecimals",
          "type": "uint256"
        },
        {
          "internalType": "uint256",
          "name": "decimals",
          "type": "uint256"
        }
      ],
      "name": "setClaimSetting",
      "outputs": [],
      "stateMutability": "nonpayable",
      "type": "function"
    },
    {
      "inputs": [],
      "name": "nextCfxClaim",
      "outputs": [
        {
          "internalType": "uint256",
          "name": "",
          "type": "uint256"
        }
      ],
      "stateMutability": "view",
      "type": "function"
    },
    {
      "inputs": [
        {
          "internalType": "address",
          "name": "tokenContractAddress",
          "type": "address"
        }
      ],
      "name": "nextTokenClaim",
      "outputs": [
        {
          "internalType": "uint256",
          "name": "",
          "type": "uint256"
        }
      ],
      "stateMutability": "view",
      "type": "function"
    },
    {
      "inputs": [
        {
          "internalType": "address",
          "name": "tokenContractAddress",
          "type": "address"
        }
      ],
      "name": "claimToken",
      "outputs": [],
      "stateMutability": "nonpayable",
      "type": "function"
    },
    {
      "inputs": [
        {
          "internalType": "address",
          "name": "tokenContractAddress",
          "type": "address"
        }
      ],
      "name": "claimTokenRegardingSenderBalance",
      "outputs": [],
      "stateMutability": "nonpayable",
      "type": "function"
    },
    {
      "inputs": [],
      "name": "claimCfx",
      "outputs": [],
      "stateMutability": "payable",
      "type": "function"
    },
    {
      "inputs": [],
      "name": "claimCfxRegardingSenderBalance",
      "outputs": [],
      "stateMutability": "payable",
      "type": "function"
    }
  ],
  "bytecode": "0x60806040526078600355670de0b6b3a764000060045534801561002157600080fd5b5033600560006101000a81548173ffffffffffffffffffffffffffffffffffffffff021916908373ffffffffffffffffffffffffffffffffffffffff160217905550600073088800000000000000000000000000000000000190506060600167ffffffffffffffff8111801561009657600080fd5b506040519080825280602002602001820160405280156100c55781602001602082028036833780820191505090505b5090506000816000815181106100d757fe5b602002602001019073ffffffffffffffffffffffffffffffffffffffff16908173ffffffffffffffffffffffffffffffffffffffff16815250508173ffffffffffffffffffffffffffffffffffffffff166310128d3e826040518263ffffffff1660e01b81526004018080602001828103825283818151815260200191508051906020019060200280838360005b83811015610180578082015181840152602081019050610165565b5050505090500192505050600060405180830381600087803b1580156101a557600080fd5b505af11580156101b9573d6000803e3d6000fd5b5050505050506114cb806101ce6000396000f3fe6080604052600436106100e15760003560e01c8063a3fbbaae1161007f578063c57bb04c11610059578063c57bb04c14610369578063d1ac71fb146103ce578063dde070e8146103f9578063fc27ea831461045e576100e8565b8063a3fbbaae146102bd578063b29bfb881461030e578063bb53cb2714610318576100e8565b80635f3cc9f7116100bb5780635f3cc9f7146101a457806360e2a7c1146101ae5780637a4102b8146102135780637ccf115b1461024e576100e8565b80632b76b3f1146100ed5780632d3e8d5e1461012857806332f289cf14610153576100e8565b366100e857005b600080fd5b3480156100f957600080fd5b506101266004803603602081101561011057600080fd5b8101908080359060200190929190505050610489565b005b34801561013457600080fd5b5061013d610556565b6040518082815260200191505060405180910390f35b34801561015f57600080fd5b506101a26004803603602081101561017657600080fd5b81019080803573ffffffffffffffffffffffffffffffffffffffff1690602001909291905050506105ca565b005b6101ac61080e565b005b3480156101ba57600080fd5b506101fd600480360360208110156101d157600080fd5b81019080803573ffffffffffffffffffffffffffffffffffffffff1690602001909291905050506109b6565b6040518082815260200191505060405180910390f35b34801561021f57600080fd5b5061024c6004803603602081101561023657600080fd5b8101908080359060200190929190505050610a73565b005b34801561025a57600080fd5b506102bb6004803603608081101561027157600080fd5b81019080803573ffffffffffffffffffffffffffffffffffffffff169060200190929190803590602001909291908035906020019092919080359060200190929190505050610b4a565b005b3480156102c957600080fd5b5061030c600480360360208110156102e057600080fd5b81019080803573ffffffffffffffffffffffffffffffffffffffff169060200190929190505050610ca6565b005b610316610dad565b005b34801561032457600080fd5b506103676004803603602081101561033b57600080fd5b81019080803573ffffffffffffffffffffffffffffffffffffffff169060200190929190505050610fdf565b005b34801561037557600080fd5b506103b86004803603602081101561038c57600080fd5b81019080803573ffffffffffffffffffffffffffffffffffffffff169060200190929190505050611324565b6040518082815260200191505060405180910390f35b3480156103da57600080fd5b506103e3611389565b6040518082815260200191505060405180910390f35b34801561040557600080fd5b506104486004803603602081101561041c57600080fd5b81019080803573ffffffffffffffffffffffffffffffffffffffff16906020019092919050505061138f565b6040518082815260200191505060405180910390f35b34801561046a57600080fd5b506104736113f4565b6040518082815260200191505060405180910390f35b600560009054906101000a900473ffffffffffffffffffffffffffffffffffffffff1673ffffffffffffffffffffffffffffffffffffffff163373ffffffffffffffffffffffffffffffffffffffff161461054c576040517f08c379a00000000000000000000000000000000000000000000000000000000081526004018080602001828103825260158152602001807f53656e646572206973206e6f74206d616e61676572000000000000000000000081525060200191505060405180910390fd5b8060038190555050565b600080600160003373ffffffffffffffffffffffffffffffffffffffff1673ffffffffffffffffffffffffffffffffffffffff16815260200190815260200160002054905060008114806105ad5750600354814203105b156105bc5760009150506105c7565b600354814203039150505b90565b60008060008373ffffffffffffffffffffffffffffffffffffffff1673ffffffffffffffffffffffffffffffffffffffff16815260200190815260200160002060003373ffffffffffffffffffffffffffffffffffffffff1673ffffffffffffffffffffffffffffffffffffffff168152602001908152602001600020549050600061065583611324565b905060006106628461138f565b905081834203116106db576040517f08c379a00000000000000000000000000000000000000000000000000000000081526004018080602001828103825260188152602001807f436c61696d20496e74657276616c20746f6f2073686f7274000000000000000081525060200191505060405180910390fd5b426000808673ffffffffffffffffffffffffffffffffffffffff1673ffffffffffffffffffffffffffffffffffffffff16815260200190815260200160002060003373ffffffffffffffffffffffffffffffffffffffff1673ffffffffffffffffffffffffffffffffffffffff168152602001908152602001600020819055508373ffffffffffffffffffffffffffffffffffffffff1663a9059cbb33836040518363ffffffff1660e01b8152600401808373ffffffffffffffffffffffffffffffffffffffff16815260200182815260200192505050602060405180830381600087803b1580156107cc57600080fd5b505af11580156107e0573d6000803e3d6000fd5b505050506040513d60208110156107f657600080fd5b81019080805190602001909291905050505050505050565b6000600160003373ffffffffffffffffffffffffffffffffffffffff1673ffffffffffffffffffffffffffffffffffffffff168152602001908152602001600020549050600354814203116108cb576040517f08c379a00000000000000000000000000000000000000000000000000000000081526004018080602001828103825260188152602001807f436c61696d20496e74657276616c20746f6f2073686f7274000000000000000081525060200191505060405180910390fd5b42600160003373ffffffffffffffffffffffffffffffffffffffff1673ffffffffffffffffffffffffffffffffffffffff1681526020019081526020016000208190555060045447101561096a576040517f08c379a000000000000000000000000000000000000000000000000000000000815260040180806020018281038252603b81526020018061145b603b913960400191505060405180910390fd5b3373ffffffffffffffffffffffffffffffffffffffff166108fc6004549081150290604051600060405180830381858888f193505050501580156109b2573d6000803e3d6000fd5b5050565b6000806000808473ffffffffffffffffffffffffffffffffffffffff1673ffffffffffffffffffffffffffffffffffffffff16815260200190815260200160002060003373ffffffffffffffffffffffffffffffffffffffff1673ffffffffffffffffffffffffffffffffffffffff1681526020019081526020016000205490506000610a4284611324565b90506000821480610a54575080824203105b15610a6457600092505050610a6e565b8082420303925050505b919050565b600560009054906101000a900473ffffffffffffffffffffffffffffffffffffffff1673ffffffffffffffffffffffffffffffffffffffff163373ffffffffffffffffffffffffffffffffffffffff1614610b36576040517f08c379a00000000000000000000000000000000000000000000000000000000081526004018080602001828103825260158152602001807f53656e646572206973206e6f74206d616e61676572000000000000000000000081525060200191505060405180910390fd5b670de0b6b3a7640000810260048190555050565b600560009054906101000a900473ffffffffffffffffffffffffffffffffffffffff1673ffffffffffffffffffffffffffffffffffffffff163373ffffffffffffffffffffffffffffffffffffffff1614610c0d576040517f08c379a00000000000000000000000000000000000000000000000000000000081526004018080602001828103825260158152602001807f53656e646572206973206e6f74206d616e61676572000000000000000000000081525060200191505060405180910390fd5b82600260008673ffffffffffffffffffffffffffffffffffffffff1673ffffffffffffffffffffffffffffffffffffffff1681526020019081526020016000206001018190555080600a0a8202600260008673ffffffffffffffffffffffffffffffffffffffff1673ffffffffffffffffffffffffffffffffffffffff1681526020019081526020016000206000018190555050505050565b600560009054906101000a900473ffffffffffffffffffffffffffffffffffffffff1673ffffffffffffffffffffffffffffffffffffffff163373ffffffffffffffffffffffffffffffffffffffff1614610d69576040517f08c379a00000000000000000000000000000000000000000000000000000000081526004018080602001828103825260158152602001807f53656e646572206973206e6f74206d616e61676572000000000000000000000081525060200191505060405180910390fd5b80600560006101000a81548173ffffffffffffffffffffffffffffffffffffffff021916908373ffffffffffffffffffffffffffffffffffffffff16021790555050565b6000600160003373ffffffffffffffffffffffffffffffffffffffff1673ffffffffffffffffffffffffffffffffffffffff16815260200190815260200160002054905060035481420311610e6a576040517f08c379a00000000000000000000000000000000000000000000000000000000081526004018080602001828103825260188152602001807f436c61696d20496e74657276616c20746f6f2073686f7274000000000000000081525060200191505060405180910390fd5b6004543373ffffffffffffffffffffffffffffffffffffffff163110610edb576040517f08c379a000000000000000000000000000000000000000000000000000000000815260040180806020018281038252602f8152602001806113fb602f913960400191505060405180910390fd5b42600160003373ffffffffffffffffffffffffffffffffffffffff1673ffffffffffffffffffffffffffffffffffffffff16815260200190815260200160002081905550600454471015610f7a576040517f08c379a000000000000000000000000000000000000000000000000000000000815260040180806020018281038252603b81526020018061145b603b913960400191505060405180910390fd5b3373ffffffffffffffffffffffffffffffffffffffff166108fc3373ffffffffffffffffffffffffffffffffffffffff1631600454039081150290604051600060405180830381858888f19350505050158015610fdb573d6000803e3d6000fd5b5050565b60008060008373ffffffffffffffffffffffffffffffffffffffff1673ffffffffffffffffffffffffffffffffffffffff16815260200190815260200160002060003373ffffffffffffffffffffffffffffffffffffffff1673ffffffffffffffffffffffffffffffffffffffff168152602001908152602001600020549050600061106a83611324565b905060006110778461138f565b905081834203116110f0576040517f08c379a00000000000000000000000000000000000000000000000000000000081526004018080602001828103825260188152602001807f436c61696d20496e74657276616c20746f6f2073686f7274000000000000000081525060200191505060405180910390fd5b60008473ffffffffffffffffffffffffffffffffffffffff166370a08231336040518263ffffffff1660e01b8152600401808273ffffffffffffffffffffffffffffffffffffffff16815260200191505060206040518083038186803b15801561115957600080fd5b505afa15801561116d573d6000803e3d6000fd5b505050506040513d602081101561118357600080fd5b810190808051906020019092919050505090508181106111ee576040517f08c379a000000000000000000000000000000000000000000000000000000000815260040180806020018281038252603181526020018061142a6031913960400191505060405180910390fd5b426000808773ffffffffffffffffffffffffffffffffffffffff1673ffffffffffffffffffffffffffffffffffffffff16815260200190815260200160002060003373ffffffffffffffffffffffffffffffffffffffff1673ffffffffffffffffffffffffffffffffffffffff168152602001908152602001600020819055508473ffffffffffffffffffffffffffffffffffffffff1663a9059cbb338385036040518363ffffffff1660e01b8152600401808373ffffffffffffffffffffffffffffffffffffffff16815260200182815260200192505050602060405180830381600087803b1580156112e157600080fd5b505af11580156112f5573d6000803e3d6000fd5b505050506040513d602081101561130b57600080fd5b8101908080519060200190929190505050505050505050565b600080600260008473ffffffffffffffffffffffffffffffffffffffff1673ffffffffffffffffffffffffffffffffffffffff1681526020019081526020016000206001015490506000811461137d5780915050611384565b6003549150505b919050565b60035481565b600080600260008473ffffffffffffffffffffffffffffffffffffffff1673ffffffffffffffffffffffffffffffffffffffff168152602001908152602001600020600001549050600081146113e857809150506113ef565b6004549150505b919050565b6004548156fe546865726520697320656e6f756e6768204346582062616c616e636520696e2073656e64657227732077616c6c6574546865726520697320656e6f756e676820746f6b656e2062616c616e636520696e2073656e64657227732077616c6c65744e6f20656e6f7567682063667820696e20746f6b656e20706f6f6c2e20506c65617365206e6f7469667920746865206661756365742061646d696ea264697066735822122075348a9de380ba71c6482b6e9e11c1b9b02e2b7d7f62b6c4a4c84d3e9e312a2e64736f6c634300060c0033",
  "immutableReferences": {},
  "source": "// SPDX-License-Identifier: MIT\r\npragma solidity >=0.6.2 <0.8.0;\r\n\r\nimport \"./SponsorWhitelistControl.sol\";\r\nimport \"@openzeppelin/contracts/token/ERC20/IERC20.sol\";\r\n\r\ncontract Faucet {\r\n    // lastTokenClaimRecord[tokenContractAddress][msg.sender] = lastClaimTimestamp\r\n    mapping(address => mapping(address => uint256)) lastTokenClaimRecord;\r\n\r\n    // 可以使用0地址作为cfx代币的地址，这样不需要多声明一个变量，但暂时先不作更改\r\n    mapping(address => uint256) lastCfxClaimRecord;\r\n\r\n    struct ClaimSetting {\r\n        uint256 amount;\r\n        uint256 interval;\r\n    }\r\n\r\n    // 每类代币的interval和amount可以单独设置\r\n    // 默认设置为CFX的设置(之后可能会将0地址视为cfx代币的地址，但当前没有)\r\n    // 当前不允许单独设置CFX但领取间隔和时间，但是可以通过修改默认值来进行变更\r\n    mapping(address => ClaimSetting) tokenClaimSettings;\r\n\r\n    // 两次领取的间隔\r\n    uint256 public defaultInterval = 120 seconds;\r\n\r\n    // 更改默认Claim token的数量\r\n    uint256 public defaultAmount = 1e18;\r\n\r\n    address internal _manager;\r\n\r\n    // constructor(uint _interval, uint256 _defaultAmount) public {\r\n    constructor() public {\r\n        // defaultInterval = _interval;\r\n        // defaultAmount = _defaultAmount;\r\n        _manager = msg.sender;\r\n        SponsorWhitelistControl cpc =\r\n            SponsorWhitelistControl(0x0888000000000000000000000000000000000001);\r\n        address[] memory a = new address[](1);\r\n        a[0] = address(0);\r\n        cpc.addPrivilege(a);\r\n    }\r\n\r\n    modifier onlyManager {\r\n        require(msg.sender == _manager, \"Sender is not manager\");\r\n        _;\r\n    }\r\n\r\n    function changeManager(address newManager) public onlyManager {\r\n        _manager = newManager;\r\n    }\r\n\r\n    // for public call\r\n    function getClaimInterval(address tokenContractAddress) public view returns (uint256) {\r\n        uint256 claimInterval = tokenClaimSettings[tokenContractAddress].interval;\r\n        if (claimInterval != 0) {\r\n            return claimInterval;\r\n        }\r\n        return defaultInterval;\r\n    }\r\n\r\n    // for public call\r\n    function getClaimAmount(address tokenContractAddress) public view returns (uint256) {\r\n        uint256 claimAmount = tokenClaimSettings[tokenContractAddress].amount;\r\n        if (claimAmount != 0) {\r\n            return claimAmount;\r\n        }\r\n        return defaultAmount;\r\n    }\r\n\r\n    function setDefaultIntervalSeconds(uint256 intervalSeconds) public onlyManager {\r\n        defaultInterval = intervalSeconds;\r\n    }\r\n\r\n    function setDefaultAmount(uint256 cfxAmount) public onlyManager {\r\n        \r\n        defaultAmount = cfxAmount * 1e18;\r\n    }\r\n\r\n    // set to 0 means using default setting\r\n    function setClaimSetting(address tokenContractAddress, uint256 interval, uint256 amountForDecimals, uint256 decimals) public onlyManager {\r\n        tokenClaimSettings[tokenContractAddress].interval = interval;\r\n        tokenClaimSettings[tokenContractAddress].amount = amountForDecimals * (10**decimals);\r\n    }\r\n\r\n    function nextCfxClaim() public view returns (uint256) {\r\n        uint256 lastTs = lastCfxClaimRecord[msg.sender];\r\n        if (lastTs == 0 || block.timestamp - lastTs < defaultInterval) {\r\n            return 0;\r\n        } else {\r\n            return block.timestamp - lastTs - defaultInterval;\r\n        }\r\n    }\r\n\r\n    function nextTokenClaim(address tokenContractAddress)\r\n        public\r\n        view\r\n        returns (uint256)\r\n    {\r\n        uint256 lastTs = lastTokenClaimRecord[tokenContractAddress][msg.sender];\r\n        uint256 interval = getClaimInterval(tokenContractAddress);\r\n        if (lastTs == 0 || block.timestamp - lastTs < interval) {\r\n            return 0;\r\n        } else {\r\n            return block.timestamp - lastTs - interval;\r\n        }\r\n    }\r\n\r\n    function claimToken(address tokenContractAddress) public {\r\n        uint256 lastTs = lastTokenClaimRecord[tokenContractAddress][msg.sender];\r\n        uint256 interval = getClaimInterval(tokenContractAddress);\r\n        uint256 amount = getClaimAmount(tokenContractAddress);\r\n\r\n        require(\r\n            block.timestamp - lastTs > interval,\r\n            \"Claim Interval too short\"\r\n        );\r\n        lastTokenClaimRecord[tokenContractAddress][msg.sender] = block.timestamp;\r\n        IERC20(tokenContractAddress).transfer(msg.sender, amount);\r\n    }\r\n\r\n    function claimTokenRegardingSenderBalance(address tokenContractAddress) public {\r\n        uint256 lastTs = lastTokenClaimRecord[tokenContractAddress][msg.sender];\r\n        uint256 interval = getClaimInterval(tokenContractAddress);\r\n        uint256 amount = getClaimAmount(tokenContractAddress);\r\n\r\n        require(\r\n            block.timestamp - lastTs > interval,\r\n            \"Claim Interval too short\"\r\n        );\r\n        uint256 balance = IERC20(tokenContractAddress).balanceOf(msg.sender);\r\n        require(\r\n            balance < amount,\r\n            \"There is enoungh token balance in sender's wallet\"\r\n        );\r\n        lastTokenClaimRecord[tokenContractAddress][msg.sender] = block.timestamp;\r\n        IERC20(tokenContractAddress).transfer(msg.sender, amount - balance);\r\n    }\r\n\r\n    function claimCfx() public payable {\r\n        uint256 lastTs = lastCfxClaimRecord[msg.sender];\r\n        require(\r\n            block.timestamp - lastTs > defaultInterval,\r\n            \"Claim Interval too short\"\r\n        );\r\n        lastCfxClaimRecord[msg.sender] = block.timestamp;\r\n        \r\n        // will revert if there is no enough cfx balance\r\n        require(\r\n            address(this).balance >= defaultAmount,\r\n            \"No enough cfx in token pool. Please notify the faucet admin\"\r\n        );\r\n        msg.sender.transfer(defaultAmount);\r\n    }\r\n\r\n    function claimCfxRegardingSenderBalance() public payable {\r\n        uint256 lastTs = lastCfxClaimRecord[msg.sender];\r\n        require(\r\n            block.timestamp - lastTs > defaultInterval,\r\n            \"Claim Interval too short\"\r\n        );\r\n        require(\r\n            msg.sender.balance < defaultAmount,\r\n            \"There is enoungh CFX balance in sender's wallet\"\r\n        );\r\n        lastCfxClaimRecord[msg.sender] = block.timestamp;\r\n        // will revert if there is no enough cfx balance\r\n        require(\r\n            address(this).balance >= defaultAmount,\r\n            \"No enough cfx in token pool. Please notify the faucet admin\"\r\n        );\r\n        msg.sender.transfer(defaultAmount - msg.sender.balance);\r\n    }\r\n\r\n    // 接受CFX转账时触发\r\n    receive() external payable {}\r\n}\r\n",
  "sourcePath": "C:/Users/daerw/Documents/code/新建文件夹/conflux-faucet/contracts/Faucet.sol",
  "compiler": {
    "name": "solc",
    "version": "0.6.12+commit.27d51765.Emscripten.clang"
  },
  "schemaVersion": "3.4.1",
  "updatedAt": "2021-06-01T05:40:43.377Z",
  "devdoc": {
    "kind": "dev",
    "methods": {},
    "version": 1
  },
  "userdoc": {
    "kind": "user",
    "methods": {},
    "version": 1
  }
}